{
  "contractName": "Auction",
  "abi": [
    {
      "inputs": [],
      "stateMutability": "nonpayable",
      "type": "constructor"
    },
    {
      "anonymous": false,
      "inputs": [
        {
          "indexed": true,
          "internalType": "address",
          "name": "_highestBidder",
          "type": "address"
        },
        {
          "indexed": false,
          "internalType": "uint256",
          "name": "_highestBid",
          "type": "uint256"
        }
      ],
      "name": "LogBid",
      "type": "event"
    },
    {
      "anonymous": false,
      "inputs": [
        {
          "indexed": true,
          "internalType": "address",
          "name": "_withdrawer",
          "type": "address"
        },
        {
          "indexed": false,
          "internalType": "uint256",
          "name": "amount",
          "type": "uint256"
        }
      ],
      "name": "LogWithdrawal",
      "type": "event"
    },
    {
      "inputs": [
        {
          "internalType": "address",
          "name": "",
          "type": "address"
        }
      ],
      "name": "bids",
      "outputs": [
        {
          "internalType": "uint256",
          "name": "",
          "type": "uint256"
        }
      ],
      "stateMutability": "view",
      "type": "function"
    },
    {
      "inputs": [],
      "name": "endTime",
      "outputs": [
        {
          "internalType": "uint256",
          "name": "",
          "type": "uint256"
        }
      ],
      "stateMutability": "view",
      "type": "function"
    },
    {
      "inputs": [],
      "name": "highestBid",
      "outputs": [
        {
          "internalType": "uint256",
          "name": "bidAmount",
          "type": "uint256"
        },
        {
          "internalType": "address",
          "name": "bidder",
          "type": "address"
        }
      ],
      "stateMutability": "view",
      "type": "function"
    },
    {
      "inputs": [],
      "name": "newHouse",
      "outputs": [
        {
          "internalType": "string",
          "name": "houseType",
          "type": "string"
        },
        {
          "internalType": "string",
          "name": "houseColor",
          "type": "string"
        },
        {
          "internalType": "string",
          "name": "houseLocation",
          "type": "string"
        }
      ],
      "stateMutability": "view",
      "type": "function"
    },
    {
      "inputs": [],
      "name": "startTime",
      "outputs": [
        {
          "internalType": "uint256",
          "name": "",
          "type": "uint256"
        }
      ],
      "stateMutability": "view",
      "type": "function"
    },
    {
      "inputs": [],
      "name": "makeBid",
      "outputs": [
        {
          "internalType": "bool",
          "name": "",
          "type": "bool"
        }
      ],
      "stateMutability": "payable",
      "type": "function"
    },
    {
      "inputs": [],
      "name": "withdraw",
      "outputs": [
        {
          "internalType": "bool",
          "name": "",
          "type": "bool"
        }
      ],
      "stateMutability": "nonpayable",
      "type": "function"
    },
    {
      "inputs": [],
      "name": "fetchHighestBid",
      "outputs": [
        {
          "components": [
            {
              "internalType": "uint256",
              "name": "bidAmount",
              "type": "uint256"
            },
            {
              "internalType": "address",
              "name": "bidder",
              "type": "address"
            }
          ],
          "internalType": "struct Auction.HighestBid",
          "name": "",
          "type": "tuple"
        }
      ],
      "stateMutability": "view",
      "type": "function"
    },
    {
      "inputs": [],
      "name": "getOwner",
      "outputs": [
        {
          "internalType": "address",
          "name": "",
          "type": "address"
        }
      ],
      "stateMutability": "view",
      "type": "function"
    }
  ],
  "bytecode": "0x60806040523480156200001157600080fd5b50336000806101000a81548173ffffffffffffffffffffffffffffffffffffffff021916908373ffffffffffffffffffffffffffffffffffffffff16021790555042600181905550610e10426200006991906200018c565b6002819055506040518060400160405280600781526020017f234646464646460000000000000000000000000000000000000000000000000081525060046001019081620000b8919062000437565b506040518060400160405280600881526020017f5361736b2c20534b0000000000000000000000000000000000000000000000008152506004600201908162000102919062000437565b506040518060400160405280600981526020017f546f776e686f7573650000000000000000000000000000000000000000000000815250600460000190816200014c919062000437565b506200051e565b6000819050919050565b7f4e487b7100000000000000000000000000000000000000000000000000000000600052601160045260246000fd5b6000620001998262000153565b9150620001a68362000153565b9250828201905080821115620001c157620001c06200015d565b5b92915050565b600081519050919050565b7f4e487b7100000000000000000000000000000000000000000000000000000000600052604160045260246000fd5b7f4e487b7100000000000000000000000000000000000000000000000000000000600052602260045260246000fd5b600060028204905060018216806200024957607f821691505b6020821081036200025f576200025e62000201565b5b50919050565b60008190508160005260206000209050919050565b60006020601f8301049050919050565b600082821b905092915050565b600060088302620002c97fffffffffffffffffffffffffffffffffffffffffffffffffffffffffffffffff826200028a565b620002d586836200028a565b95508019841693508086168417925050509392505050565b6000819050919050565b600062000318620003126200030c8462000153565b620002ed565b62000153565b9050919050565b6000819050919050565b6200033483620002f7565b6200034c62000343826200031f565b84845462000297565b825550505050565b600090565b6200036362000354565b6200037081848462000329565b505050565b5b8181101562000398576200038c60008262000359565b60018101905062000376565b5050565b601f821115620003e757620003b18162000265565b620003bc846200027a565b81016020851015620003cc578190505b620003e4620003db856200027a565b83018262000375565b50505b505050565b600082821c905092915050565b60006200040c60001984600802620003ec565b1980831691505092915050565b6000620004278383620003f9565b9150826002028217905092915050565b6200044282620001c7565b67ffffffffffffffff8111156200045e576200045d620001d2565b5b6200046a825462000230565b620004778282856200039c565b600060209050601f831160018114620004af57600084156200049a578287015190505b620004a6858262000419565b86555062000516565b601f198416620004bf8662000265565b60005b82811015620004e957848901518255600182019150602085019450602081019050620004c2565b8683101562000509578489015162000505601f891682620003f9565b8355505b6001600288020188555050505b505050505050565b61105c806200052e6000396000f3fe6080604052600436106100865760003560e01c8063893d20e811610059578063893d20e814610149578063d57bde7914610174578063f30e3658146101a0578063f373c463146101be578063fa481f86146101e957610086565b80633197cbb61461008b5780633ccfd60b146100b657806362ea82db146100e157806378e979251461011e575b600080fd5b34801561009757600080fd5b506100a0610216565b6040516100ad9190610a1d565b60405180910390f35b3480156100c257600080fd5b506100cb61021c565b6040516100d89190610a53565b60405180910390f35b3480156100ed57600080fd5b5061010860048036038101906101039190610ad1565b6104d9565b6040516101159190610a1d565b60405180910390f35b34801561012a57600080fd5b506101336104f1565b6040516101409190610a1d565b60405180910390f35b34801561015557600080fd5b5061015e6104f7565b60405161016b9190610b0d565b60405180910390f35b34801561018057600080fd5b50610189610520565b604051610197929190610b28565b60405180910390f35b6101a8610552565b6040516101b59190610a53565b60405180910390f35b3480156101ca57600080fd5b506101d36107a4565b6040516101e09190610b9e565b60405180910390f35b3480156101f557600080fd5b506101fe610824565b60405161020d93929190610c49565b60405180910390f35b60025481565b6000600254421015610263576040517f08c379a000000000000000000000000000000000000000000000000000000000815260040161025a90610ce1565b60405180910390fd5b60008054906101000a900473ffffffffffffffffffffffffffffffffffffffff1673ffffffffffffffffffffffffffffffffffffffff163373ffffffffffffffffffffffffffffffffffffffff16146102f1576040517f08c379a00000000000000000000000000000000000000000000000000000000081526004016102e890610d4d565b60405180910390fd5b60006007600001549050600060036000600760010160009054906101000a900473ffffffffffffffffffffffffffffffffffffffff1673ffffffffffffffffffffffffffffffffffffffff1673ffffffffffffffffffffffffffffffffffffffff168152602001908152602001600020819055506000600760010160006101000a81548173ffffffffffffffffffffffffffffffffffffffff021916908373ffffffffffffffffffffffffffffffffffffffff160217905550600060076000018190555060008060009054906101000a900473ffffffffffffffffffffffffffffffffffffffff1673ffffffffffffffffffffffffffffffffffffffff16826040516103fc90610d9e565b60006040518083038185875af1925050503d8060008114610439576040519150601f19603f3d011682016040523d82523d6000602084013e61043e565b606091505b5050905080610482576040517f08c379a000000000000000000000000000000000000000000000000000000000815260040161047990610dff565b60405180910390fd5b3373ffffffffffffffffffffffffffffffffffffffff167fb4214c8c54fc7442f36d3682f59aebaf09358a4431835b30efb29d52cf9e1e91836040516104c89190610a1d565b60405180910390a260019250505090565b60036020528060005260406000206000915090505481565b60015481565b60008060009054906101000a900473ffffffffffffffffffffffffffffffffffffffff16905090565b60078060000154908060010160009054906101000a900473ffffffffffffffffffffffffffffffffffffffff16905082565b60006002544210610598576040517f08c379a000000000000000000000000000000000000000000000000000000000815260040161058f90610e6b565b60405180910390fd5b60008054906101000a900473ffffffffffffffffffffffffffffffffffffffff1673ffffffffffffffffffffffffffffffffffffffff163373ffffffffffffffffffffffffffffffffffffffff1603610626576040517f08c379a000000000000000000000000000000000000000000000000000000000815260040161061d90610ed7565b60405180910390fd5b600034600360003373ffffffffffffffffffffffffffffffffffffffff1673ffffffffffffffffffffffffffffffffffffffff168152602001908152602001600020546106739190610f26565b905060076000015481116106bc576040517f08c379a00000000000000000000000000000000000000000000000000000000081526004016106b390610fa6565b60405180910390fd5b33600760010160006101000a81548173ffffffffffffffffffffffffffffffffffffffff021916908373ffffffffffffffffffffffffffffffffffffffff1602179055508060076000018190555080600360003373ffffffffffffffffffffffffffffffffffffffff1673ffffffffffffffffffffffffffffffffffffffff168152602001908152602001600020819055503373ffffffffffffffffffffffffffffffffffffffff167f5331b3a4532c2507900f549683f076c051f92222c177b52f82f140d8667d3ebf826040516107949190610a1d565b60405180910390a2600191505090565b6107ac6109d4565b60006007604051806040016040529081600082015481526020016001820160009054906101000a900473ffffffffffffffffffffffffffffffffffffffff1673ffffffffffffffffffffffffffffffffffffffff1673ffffffffffffffffffffffffffffffffffffffff168152505090508091505090565b600480600001805461083590610ff5565b80601f016020809104026020016040519081016040528092919081815260200182805461086190610ff5565b80156108ae5780601f10610883576101008083540402835291602001916108ae565b820191906000526020600020905b81548152906001019060200180831161089157829003601f168201915b5050505050908060010180546108c390610ff5565b80601f01602080910402602001604051908101604052809291908181526020018280546108ef90610ff5565b801561093c5780601f106109115761010080835404028352916020019161093c565b820191906000526020600020905b81548152906001019060200180831161091f57829003601f168201915b50505050509080600201805461095190610ff5565b80601f016020809104026020016040519081016040528092919081815260200182805461097d90610ff5565b80156109ca5780601f1061099f576101008083540402835291602001916109ca565b820191906000526020600020905b8154815290600101906020018083116109ad57829003601f168201915b5050505050905083565b604051806040016040528060008152602001600073ffffffffffffffffffffffffffffffffffffffff1681525090565b6000819050919050565b610a1781610a04565b82525050565b6000602082019050610a326000830184610a0e565b92915050565b60008115159050919050565b610a4d81610a38565b82525050565b6000602082019050610a686000830184610a44565b92915050565b600080fd5b600073ffffffffffffffffffffffffffffffffffffffff82169050919050565b6000610a9e82610a73565b9050919050565b610aae81610a93565b8114610ab957600080fd5b50565b600081359050610acb81610aa5565b92915050565b600060208284031215610ae757610ae6610a6e565b5b6000610af584828501610abc565b91505092915050565b610b0781610a93565b82525050565b6000602082019050610b226000830184610afe565b92915050565b6000604082019050610b3d6000830185610a0e565b610b4a6020830184610afe565b9392505050565b610b5a81610a04565b82525050565b610b6981610a93565b82525050565b604082016000820151610b856000850182610b51565b506020820151610b986020850182610b60565b50505050565b6000604082019050610bb36000830184610b6f565b92915050565b600081519050919050565b600082825260208201905092915050565b60005b83811015610bf3578082015181840152602081019050610bd8565b60008484015250505050565b6000601f19601f8301169050919050565b6000610c1b82610bb9565b610c258185610bc4565b9350610c35818560208601610bd5565b610c3e81610bff565b840191505092915050565b60006060820190508181036000830152610c638186610c10565b90508181036020830152610c778185610c10565b90508181036040830152610c8b8184610c10565b9050949350505050565b7f546869732061756374696f6e206973207374696c6c206f70656e2e0000000000600082015250565b6000610ccb601b83610bc4565b9150610cd682610c95565b602082019050919050565b60006020820190508181036000830152610cfa81610cbe565b9050919050565b7f4f6e6c79206f776e65722063616e20706572666f726d207461736b2e00000000600082015250565b6000610d37601c83610bc4565b9150610d4282610d01565b602082019050919050565b60006020820190508181036000830152610d6681610d2a565b9050919050565b600081905092915050565b50565b6000610d88600083610d6d565b9150610d9382610d78565b600082019050919050565b6000610da982610d7b565b9150819050919050565b7f5769746864726177616c206661696c65642e0000000000000000000000000000600082015250565b6000610de9601283610bc4565b9150610df482610db3565b602082019050919050565b60006020820190508181036000830152610e1881610ddc565b9050919050565b7f546869732061756374696f6e20697320636c6f7365642e000000000000000000600082015250565b6000610e55601783610bc4565b9150610e6082610e1f565b602082019050919050565b60006020820190508181036000830152610e8481610e48565b9050919050565b7f4f776e6572206973206e6f7420616c6c6f77656420746f206269642e00000000600082015250565b6000610ec1601c83610bc4565b9150610ecc82610e8b565b602082019050919050565b60006020820190508181036000830152610ef081610eb4565b9050919050565b7f4e487b7100000000000000000000000000000000000000000000000000000000600052601160045260246000fd5b6000610f3182610a04565b9150610f3c83610a04565b9250828201905080821115610f5457610f53610ef7565b5b92915050565b7f426964206572726f723a204d616b65206120686967686572204269642e000000600082015250565b6000610f90601d83610bc4565b9150610f9b82610f5a565b602082019050919050565b60006020820190508181036000830152610fbf81610f83565b9050919050565b7f4e487b7100000000000000000000000000000000000000000000000000000000600052602260045260246000fd5b6000600282049050600182168061100d57607f821691505b6020821081036110205761101f610fc6565b5b5091905056fea264697066735822122054e9eb33b978fb61d38a0106087c5103a3d7e0b8ec2983e18847c640a066701864736f6c63430008110033",
  "immutableReferences": {},
  "source": "// SPDX-License-Identifier: MIT\npragma solidity ^0.8.17;\n\ncontract Auction {\n // Properties\n // owner\n address private owner;\n uint256 public startTime;\n uint256 public endTime;\n // \n mapping(address => uint256) public bids;\n\n// \n struct House {\n   string houseType;\n   string houseColor;\n   string houseLocation;\n }\n\n// \n struct HighestBid {\n   uint256 bidAmount;\n   address bidder;\n }\n\n House public newHouse;\n HighestBid public highestBid;\n\n // Insert modifiers here\n // Modifiers\n // \n modifier isOngoing() {\n   require(block.timestamp < endTime, 'This auction is closed.');\n   _;\n }\n // \n modifier notOngoing() {\n   require(block.timestamp >= endTime, 'This auction is still open.');\n   _;\n }\n // \n modifier isOwner() {\n   require(msg.sender == owner, 'Only owner can perform task.');\n   _;\n }\n // \n modifier notOwner() {\n   require(msg.sender != owner, 'Owner is not allowed to bid.');\n   _;\n }\n // Insert events here\n // Events\n event LogBid(address indexed _highestBidder, uint256 _highestBid);\n event LogWithdrawal(address indexed _withdrawer, uint256 amount);\n // Insert constructor and function here\n // Assign values to some properties during deployment\n constructor () {\n   owner = msg.sender;\n   startTime = block.timestamp;\n   endTime = block.timestamp + 1 hours;\n   newHouse.houseColor = '#FFFFFF';\n   newHouse.houseLocation = 'Sask, SK';\n   newHouse.houseType = 'Townhouse';\n }\n\n// makeBid \n function makeBid() public payable isOngoing() notOwner() returns (bool) {\n   uint256 bidAmount = bids[msg.sender] + msg.value;\n   // \n   require(bidAmount > highestBid.bidAmount, 'Bid error: Make a higher Bid.');\n\n   highestBid.bidder = msg.sender;\n   highestBid.bidAmount = bidAmount;\n   bids[msg.sender] = bidAmount;\n   emit LogBid(msg.sender, bidAmount);\n   return true;\n }\n\n// \n function withdraw() public notOngoing() isOwner() returns (bool) {\n   uint256 amount = highestBid.bidAmount;\n   bids[highestBid.bidder] = 0;\n   highestBid.bidder = address(0);\n   highestBid.bidAmount = 0;\n  // \n   (bool success, ) = payable(owner).call{ value: amount }(\"\");\n   require(success, 'Withdrawal failed.');\n   emit LogWithdrawal(msg.sender, amount);\n   return true;\n }\n // \n function fetchHighestBid() public view returns (HighestBid memory) {\n   HighestBid memory _highestBid = highestBid;\n   return _highestBid;\n }\n // \n function getOwner() public view returns (address) {\n   return owner;\n }\n\n}",
  "sourcePath": "/Users/zoushijun/work/web3.0/web3-ticket/contracts/Auction.sol",
  "compiler": {
    "name": "solc",
    "version": "0.8.17+commit.8df45f5f.Emscripten.clang"
  },
  "schemaVersion": "3.4.10",
  "updatedAt": "2022-09-17T09:16:16.184Z",
  "devdoc": {
    "kind": "dev",
    "methods": {},
    "version": 1
  },
  "userdoc": {
    "kind": "user",
    "methods": {},
    "version": 1
  }
}